{"abi":[{"type":"function","name":"borrow","inputs":[{"name":"_amount","type":"uint256","internalType":"uint256"},{"name":"_to","type":"address","internalType":"address payable"}],"outputs":[],"stateMutability":"payable"},{"type":"function","name":"deposit","inputs":[],"outputs":[],"stateMutability":"payable"},{"type":"function","name":"lenderDeposits","inputs":[{"name":"","type":"address","internalType":"address"}],"outputs":[{"name":"","type":"uint256","internalType":"uint256"}],"stateMutability":"view"},{"type":"function","name":"loans","inputs":[{"name":"","type":"uint256","internalType":"uint256"}],"outputs":[{"name":"borrower","type":"address","internalType":"address"},{"name":"amount","type":"uint256","internalType":"uint256"},{"name":"interestRate","type":"uint256","internalType":"uint256"},{"name":"repaymentDeadline","type":"uint256","internalType":"uint256"},{"name":"isRepaid","type":"bool","internalType":"bool"},{"name":"isDefaulted","type":"bool","internalType":"bool"}],"stateMutability":"view"},{"type":"function","name":"repay","inputs":[{"name":"_loanId","type":"uint256","internalType":"uint256"}],"outputs":[],"stateMutability":"payable"},{"type":"function","name":"totalPooledEther","inputs":[],"outputs":[{"name":"","type":"uint256","internalType":"uint256"}],"stateMutability":"view"},{"type":"function","name":"withdraw","inputs":[{"name":"_amount","type":"uint256","internalType":"uint256"}],"outputs":[],"stateMutability":"nonpayable"},{"type":"event","name":"Deposited","inputs":[{"name":"from","type":"address","indexed":true,"internalType":"address"},{"name":"amount","type":"uint256","indexed":false,"internalType":"uint256"}],"anonymous":false}],"bytecode":{"object":"0x6080604052348015600e575f5ffd5b506110ee8061001c5f395ff3fe60806040526004361061006f575f3560e01c806369415b861161004d57806369415b86146100d357806399398358146100fd578063d0e30db014610139578063e1ec3c68146101435761006f565b80632e1a7d4d14610073578063371fd8e61461009b5780634b3fd148146100b7575b5f5ffd5b34801561007e575f5ffd5b50610099600480360381019061009491906108d5565b610184565b005b6100b560048036038101906100b091906108d5565b6102f6565b005b6100d160048036038101906100cc919061095a565b61049a565b005b3480156100de575f5ffd5b506100e7610718565b6040516100f491906109a7565b60405180910390f35b348015610108575f5ffd5b50610123600480360381019061011e91906109fb565b61071e565b60405161013091906109a7565b60405180910390f35b610141610732565b005b34801561014e575f5ffd5b50610169600480360381019061016491906108d5565b61082e565b60405161017b96959493929190610a4f565b60405180910390f35b5f81116101c6576040517f08c379a00000000000000000000000000000000000000000000000000000000081526004016101bd90610b2e565b60405180910390fd5b805f5f3373ffffffffffffffffffffffffffffffffffffffff1673ffffffffffffffffffffffffffffffffffffffff1681526020019081526020015f20541015610245576040517f08c379a000000000000000000000000000000000000000000000000000000000815260040161023c90610b96565b60405180910390fd5b805f5f3373ffffffffffffffffffffffffffffffffffffffff1673ffffffffffffffffffffffffffffffffffffffff1681526020019081526020015f205f8282546102909190610be1565b925050819055508060015f8282546102a89190610be1565b925050819055503373ffffffffffffffffffffffffffffffffffffffff166108fc8290811502906040515f60405180830381858888f193505050501580156102f2573d5f5f3e3d5ffd5b5050565b600254811061033a576040517f08c379a000000000000000000000000000000000000000000000000000000000815260040161033190610c5e565b60405180910390fd5b5f60035f8381526020019081526020015f209050806004015f9054906101000a900460ff161561039f576040517f08c379a000000000000000000000000000000000000000000000000000000000815260040161039690610cc6565b60405180910390fd5b8060040160019054906101000a900460ff16156103f1576040517f08c379a00000000000000000000000000000000000000000000000000000000081526004016103e890610d2e565b60405180910390fd5b6064816002015482600101546104079190610d4c565b6104119190610dba565b81600101546104209190610dea565b341015610462576040517f08c379a000000000000000000000000000000000000000000000000000000000815260040161045990610e67565b60405180910390fd5b6001816004015f6101000a81548160ff0219169083151502179055503460015f82825461048f9190610dea565b925050819055505050565b5f82116104dc576040517f08c379a00000000000000000000000000000000000000000000000000000000081526004016104d390610ef5565b60405180910390fd5b5f73ffffffffffffffffffffffffffffffffffffffff168173ffffffffffffffffffffffffffffffffffffffff160361054a576040517f08c379a000000000000000000000000000000000000000000000000000000000815260040161054190610f5d565b60405180910390fd5b81600154101561058f576040517f08c379a000000000000000000000000000000000000000000000000000000000815260040161058690610fc5565b60405180910390fd5b5f6040518060c001604052803373ffffffffffffffffffffffffffffffffffffffff1681526020018481526020016005815260200162278d00426105d39190610dea565b81526020015f151581526020015f151581525090508060035f60025481526020019081526020015f205f820151815f015f6101000a81548173ffffffffffffffffffffffffffffffffffffffff021916908373ffffffffffffffffffffffffffffffffffffffff1602179055506020820151816001015560408201518160020155606082015181600301556080820151816004015f6101000a81548160ff02191690831515021790555060a08201518160040160016101000a81548160ff02191690831515021790555090505060025f8154809291906106b290610fe3565b91905055508260015f8282546106c89190610be1565b925050819055508173ffffffffffffffffffffffffffffffffffffffff166108fc8490811502906040515f60405180830381858888f19350505050158015610712573d5f5f3e3d5ffd5b50505050565b60015481565b5f602052805f5260405f205f915090505481565b5f3411610774576040517f08c379a000000000000000000000000000000000000000000000000000000000815260040161076b9061109a565b60405180910390fd5b3460015f8282546107859190610dea565b92505081905550345f5f3373ffffffffffffffffffffffffffffffffffffffff1673ffffffffffffffffffffffffffffffffffffffff1681526020019081526020015f205f8282546107d79190610dea565b925050819055503373ffffffffffffffffffffffffffffffffffffffff167f2da466a7b24304f47e87fa2e1e5a81b9831ce54fec19055ce277ca2f39ba42c43460405161082491906109a7565b60405180910390a2565b6003602052805f5260405f205f91509050805f015f9054906101000a900473ffffffffffffffffffffffffffffffffffffffff1690806001015490806002015490806003015490806004015f9054906101000a900460ff16908060040160019054906101000a900460ff16905086565b5f5ffd5b5f819050919050565b6108b4816108a2565b81146108be575f5ffd5b50565b5f813590506108cf816108ab565b92915050565b5f602082840312156108ea576108e961089e565b5b5f6108f7848285016108c1565b91505092915050565b5f73ffffffffffffffffffffffffffffffffffffffff82169050919050565b5f61092982610900565b9050919050565b6109398161091f565b8114610943575f5ffd5b50565b5f8135905061095481610930565b92915050565b5f5f604083850312156109705761096f61089e565b5b5f61097d858286016108c1565b925050602061098e85828601610946565b9150509250929050565b6109a1816108a2565b82525050565b5f6020820190506109ba5f830184610998565b92915050565b5f6109ca82610900565b9050919050565b6109da816109c0565b81146109e4575f5ffd5b50565b5f813590506109f5816109d1565b92915050565b5f60208284031215610a1057610a0f61089e565b5b5f610a1d848285016109e7565b91505092915050565b610a2f816109c0565b82525050565b5f8115159050919050565b610a4981610a35565b82525050565b5f60c082019050610a625f830189610a26565b610a6f6020830188610998565b610a7c6040830187610998565b610a896060830186610998565b610a966080830185610a40565b610aa360a0830184610a40565b979650505050505050565b5f82825260208201905092915050565b7f576974686472617720616d6f756e74206d7573742062652067726561746572205f8201527f7468616e207a65726f0000000000000000000000000000000000000000000000602082015250565b5f610b18602983610aae565b9150610b2382610abe565b604082019050919050565b5f6020820190508181035f830152610b4581610b0c565b9050919050565b7f496e73756666696369656e742062616c616e636520746f2077697468647261775f82015250565b5f610b80602083610aae565b9150610b8b82610b4c565b602082019050919050565b5f6020820190508181035f830152610bad81610b74565b9050919050565b7f4e487b71000000000000000000000000000000000000000000000000000000005f52601160045260245ffd5b5f610beb826108a2565b9150610bf6836108a2565b9250828203905081811115610c0e57610c0d610bb4565b5b92915050565b7f496e76616c6964206c6f616e20494400000000000000000000000000000000005f82015250565b5f610c48600f83610aae565b9150610c5382610c14565b602082019050919050565b5f6020820190508181035f830152610c7581610c3c565b9050919050565b7f4c6f616e20616c726561647920726570616964000000000000000000000000005f82015250565b5f610cb0601383610aae565b9150610cbb82610c7c565b602082019050919050565b5f6020820190508181035f830152610cdd81610ca4565b9050919050565b7f4c6f616e20697320696e2064656661756c7400000000000000000000000000005f82015250565b5f610d18601283610aae565b9150610d2382610ce4565b602082019050919050565b5f6020820190508181035f830152610d4581610d0c565b9050919050565b5f610d56826108a2565b9150610d61836108a2565b9250828202610d6f816108a2565b91508282048414831517610d8657610d85610bb4565b5b5092915050565b7f4e487b71000000000000000000000000000000000000000000000000000000005f52601260045260245ffd5b5f610dc4826108a2565b9150610dcf836108a2565b925082610ddf57610dde610d8d565b5b828204905092915050565b5f610df4826108a2565b9150610dff836108a2565b9250828201905080821115610e1757610e16610bb4565b5b92915050565b7f496e73756666696369656e742072657061796d656e7420616d6f756e740000005f82015250565b5f610e51601d83610aae565b9150610e5c82610e1d565b602082019050919050565b5f6020820190508181035f830152610e7e81610e45565b9050919050565b7f426f72726f7720616d6f756e74206d75737420626520677265617465722074685f8201527f616e207a65726f00000000000000000000000000000000000000000000000000602082015250565b5f610edf602783610aae565b9150610eea82610e85565b604082019050919050565b5f6020820190508181035f830152610f0c81610ed3565b9050919050565b7f496e76616c696420726563697069656e742061646472657373000000000000005f82015250565b5f610f47601983610aae565b9150610f5282610f13565b602082019050919050565b5f6020820190508181035f830152610f7481610f3b565b9050919050565b7f496e73756666696369656e7420706f6f6c65642066756e6473000000000000005f82015250565b5f610faf601983610aae565b9150610fba82610f7b565b602082019050919050565b5f6020820190508181035f830152610fdc81610fa3565b9050919050565b5f610fed826108a2565b91507fffffffffffffffffffffffffffffffffffffffffffffffffffffffffffffffff820361101f5761101e610bb4565b5b600182019050919050565b7f4465706f73697420616d6f756e74206d757374206265206772656174657220745f8201527f68616e207a65726f000000000000000000000000000000000000000000000000602082015250565b5f611084602883610aae565b915061108f8261102a565b604082019050919050565b5f6020820190508181035f8301526110b181611078565b905091905056fea2646970667358221220cca9ed07ff7ee7e14fc1d86df840c4c1a71826c2e91e522a4e59911b1eb661c964736f6c634300081e0033","linkReferences":{}},"methodIdentifiers":{"borrow(uint256,address)":"4b3fd148","deposit()":"d0e30db0","lenderDeposits(address)":"99398358","loans(uint256)":"e1ec3c68","repay(uint256)":"371fd8e6","totalPooledEther()":"69415b86","withdraw(uint256)":"2e1a7d4d"},"id":19}