{"abi":[{"type":"receive","stateMutability":"payable"},{"type":"function","name":"borrow","inputs":[{"name":"_amount","type":"uint256","internalType":"uint256"},{"name":"_to","type":"address","internalType":"address payable"}],"outputs":[],"stateMutability":"payable"},{"type":"function","name":"deposit","inputs":[],"outputs":[],"stateMutability":"payable"},{"type":"event","name":"Deposited","inputs":[{"name":"from","type":"address","indexed":true,"internalType":"address"},{"name":"amount","type":"uint256","indexed":false,"internalType":"uint256"}],"anonymous":false}],"bytecode":{"object":"0x6080604052348015600e575f5ffd5b5061063b8061001c5f395ff3fe60806040526004361061002c575f3560e01c80634b3fd14814610037578063d0e30db01461005357610033565b3661003357005b5f5ffd5b610051600480360381019061004c9190610320565b61005d565b005b61005b6101fd565b005b5f821161009f576040517f08c379a0000000000000000000000000000000000000000000000000000000008152600401610096906103b8565b60405180910390fd5b5f73ffffffffffffffffffffffffffffffffffffffff168173ffffffffffffffffffffffffffffffffffffffff160361010d576040517f08c379a000000000000000000000000000000000000000000000000000000000815260040161010490610420565b60405180910390fd5b47821115610150576040517f08c379a000000000000000000000000000000000000000000000000000000000815260040161014790610488565b60405180910390fd5b5f8173ffffffffffffffffffffffffffffffffffffffff1683604051610175906104d3565b5f6040518083038185875af1925050503d805f81146101af576040519150601f19603f3d011682016040523d82523d5f602084013e6101b4565b606091505b50509050806101f8576040517f08c379a00000000000000000000000000000000000000000000000000000000081526004016101ef90610531565b60405180910390fd5b505050565b5f341161023f576040517f08c379a0000000000000000000000000000000000000000000000000000000008152600401610236906105bf565b60405180910390fd5b3373ffffffffffffffffffffffffffffffffffffffff167f2da466a7b24304f47e87fa2e1e5a81b9831ce54fec19055ce277ca2f39ba42c43460405161028591906105ec565b60405180910390a2565b5f5ffd5b5f819050919050565b6102a581610293565b81146102af575f5ffd5b50565b5f813590506102c08161029c565b92915050565b5f73ffffffffffffffffffffffffffffffffffffffff82169050919050565b5f6102ef826102c6565b9050919050565b6102ff816102e5565b8114610309575f5ffd5b50565b5f8135905061031a816102f6565b92915050565b5f5f604083850312156103365761033561028f565b5b5f610343858286016102b2565b92505060206103548582860161030c565b9150509250929050565b5f82825260208201905092915050565b7f416d6f756e74206d7573742062652067726561746572207468616e207a65726f5f82015250565b5f6103a260208361035e565b91506103ad8261036e565b602082019050919050565b5f6020820190508181035f8301526103cf81610396565b9050919050565b7f496e76616c6964206164647265737300000000000000000000000000000000005f82015250565b5f61040a600f8361035e565b9150610415826103d6565b602082019050919050565b5f6020820190508181035f830152610437816103fe565b9050919050565b7f496e73756666696369656e7420636f6e74726163742062616c616e63650000005f82015250565b5f610472601d8361035e565b915061047d8261043e565b602082019050919050565b5f6020820190508181035f83015261049f81610466565b9050919050565b5f81905092915050565b50565b5f6104be5f836104a6565b91506104c9826104b0565b5f82019050919050565b5f6104dd826104b3565b9150819050919050565b7f5472616e73666572206661696c65642e000000000000000000000000000000005f82015250565b5f61051b60108361035e565b9150610526826104e7565b602082019050919050565b5f6020820190508181035f8301526105488161050f565b9050919050565b7f4465706f73697420616d6f756e74206d757374206265206772656174657220745f8201527f68616e207a65726f000000000000000000000000000000000000000000000000602082015250565b5f6105a960288361035e565b91506105b48261054f565b604082019050919050565b5f6020820190508181035f8301526105d68161059d565b9050919050565b6105e681610293565b82525050565b5f6020820190506105ff5f8301846105dd565b9291505056fea26469706673582212200782b4951430f7ec90ac113b22bd1a833623801f7fecab91fda8c98e6dade0cd64736f6c634300081e0033","linkReferences":{}},"methodIdentifiers":{"borrow(uint256,address)":"4b3fd148","deposit()":"d0e30db0"},"id":19}